:06096F0004080000000076
:10092800E4F50C7590FF12096112097612088C8F94
:100938000C7E00EF6401700563900180EFEF6402A4
:080948004E70E96390FF80E4AA
:10088C00750D0320B254E4F50BF50AF509F50812C1
:10089C00097B30B2FD12097EE4FFFEFDFCAB0BAA16
:1008AC000AA909A808D3120950402FE47F64FEFD61
:1008BC00FCAB0BAA0AA909A8081209505005750D22
:1008CC00018017E47FC8FEFDFCAB0BAA0AA909A89E
:0C08DC0008C31209504003750D02AF0D57
:0108E80022ED
:0E096100758901758CD8758AF0C28DC28C2202
:03097B00D28C22F9
:03097E00C28C2206
:05097600D2A9D2AF225E
:03000B000208E9FF
:1008E900C0E0C0D075D000C004C005C006C007C2B2
:1008F9008C758CD8758AF0AF0BAE0AAD09AC08EFD0
:100909002401F50BE43EF50AE43DF509E43CF5085C
:0F091900D28CD007D006D005D004D0D0D0E03299
:03000000020800F3
:0C080000787FE4F6D8FD75810D020847F2
:10095000EB9FF5F0EA9E42F0E99D42F0E89C45F0FD
:010960002274
:10080C00020928E493A3F8E493A34003F68001F2D1
:10081C0008DFF48029E493A3F85407240CC8C333ED
:10082C00C4540F4420C8834004F456800146F6DFBC
:10083C00E4800B010204081020408090096FE47ED4
:10084C00019360BCA3FF543F30E509541FFEE493B1
:10085C00A360010ECF54C025E060A840B8E493A378
:10086C00FAE493A3F8E493A3C8C582C8CAC583CAA3
:10087C00F0A3C8C582C8CAC583CADFE9DEE780BE5B
:010975000081
:00000001FF
